{
  "contractName": "Forum",
  "abi": [
    {
      "constant": true,
      "inputs": [
        {
          "name": "",
          "type": "bytes32"
        }
      ],
      "name": "messageQueue",
      "outputs": [
        {
          "name": "title",
          "type": "string"
        },
        {
          "name": "content",
          "type": "string"
        },
        {
          "name": "reward",
          "type": "uint256"
        }
      ],
      "payable": false,
      "stateMutability": "view",
      "type": "function"
    },
    {
      "constant": true,
      "inputs": [],
      "name": "totalTokens",
      "outputs": [
        {
          "name": "",
          "type": "uint256"
        }
      ],
      "payable": false,
      "stateMutability": "view",
      "type": "function"
    },
    {
      "constant": true,
      "inputs": [],
      "name": "tokenPrice",
      "outputs": [
        {
          "name": "",
          "type": "uint256"
        }
      ],
      "payable": false,
      "stateMutability": "view",
      "type": "function"
    },
    {
      "constant": true,
      "inputs": [
        {
          "name": "",
          "type": "bytes32"
        }
      ],
      "name": "questionInfo",
      "outputs": [
        {
          "name": "id",
          "type": "bytes32"
        },
        {
          "name": "title",
          "type": "string"
        },
        {
          "name": "question",
          "type": "string"
        },
        {
          "name": "questioner",
          "type": "address"
        },
        {
          "name": "createDate",
          "type": "uint256"
        },
        {
          "name": "questionReward",
          "type": "uint256"
        },
        {
          "name": "bestAnswerSelected",
          "type": "bool"
        }
      ],
      "payable": false,
      "stateMutability": "view",
      "type": "function"
    },
    {
      "constant": true,
      "inputs": [
        {
          "name": "",
          "type": "uint256"
        }
      ],
      "name": "questionIdList",
      "outputs": [
        {
          "name": "",
          "type": "bytes32"
        }
      ],
      "payable": false,
      "stateMutability": "view",
      "type": "function"
    },
    {
      "constant": true,
      "inputs": [],
      "name": "balanceTokens",
      "outputs": [
        {
          "name": "",
          "type": "uint256"
        }
      ],
      "payable": false,
      "stateMutability": "view",
      "type": "function"
    },
    {
      "inputs": [
        {
          "name": "tokens",
          "type": "uint256"
        },
        {
          "name": "pricePerToken",
          "type": "uint256"
        }
      ],
      "payable": false,
      "stateMutability": "nonpayable",
      "type": "constructor"
    },
    {
      "anonymous": false,
      "inputs": [
        {
          "indexed": false,
          "name": "",
          "type": "address"
        }
      ],
      "name": "LogMsg",
      "type": "event"
    },
    {
      "constant": true,
      "inputs": [],
      "name": "getQuestionListLength",
      "outputs": [
        {
          "name": "",
          "type": "uint256"
        }
      ],
      "payable": false,
      "stateMutability": "view",
      "type": "function"
    },
    {
      "constant": true,
      "inputs": [
        {
          "name": "questionIndex",
          "type": "uint256"
        }
      ],
      "name": "getQuestion",
      "outputs": [
        {
          "name": "",
          "type": "bytes32"
        },
        {
          "name": "",
          "type": "string"
        },
        {
          "name": "",
          "type": "string"
        },
        {
          "name": "",
          "type": "string"
        },
        {
          "name": "",
          "type": "address"
        },
        {
          "name": "",
          "type": "uint256"
        },
        {
          "name": "",
          "type": "uint256"
        },
        {
          "name": "",
          "type": "bool"
        }
      ],
      "payable": false,
      "stateMutability": "view",
      "type": "function"
    },
    {
      "constant": true,
      "inputs": [
        {
          "name": "questionIndex",
          "type": "uint256"
        }
      ],
      "name": "getQuestionAnswerListLength",
      "outputs": [
        {
          "name": "",
          "type": "uint256"
        }
      ],
      "payable": false,
      "stateMutability": "view",
      "type": "function"
    },
    {
      "constant": true,
      "inputs": [
        {
          "name": "questionId",
          "type": "bytes32"
        }
      ],
      "name": "getQuestionAnswerListLengthByQuestionId",
      "outputs": [
        {
          "name": "",
          "type": "uint256"
        }
      ],
      "payable": false,
      "stateMutability": "view",
      "type": "function"
    },
    {
      "constant": true,
      "inputs": [
        {
          "name": "questionId",
          "type": "bytes32"
        },
        {
          "name": "answerIndex",
          "type": "uint256"
        }
      ],
      "name": "getQuestionAnswerByQuestionId",
      "outputs": [
        {
          "name": "",
          "type": "string"
        },
        {
          "name": "",
          "type": "bytes32"
        },
        {
          "name": "",
          "type": "bytes32"
        },
        {
          "name": "",
          "type": "address"
        },
        {
          "name": "",
          "type": "bool"
        },
        {
          "name": "",
          "type": "uint256"
        }
      ],
      "payable": false,
      "stateMutability": "view",
      "type": "function"
    },
    {
      "constant": true,
      "inputs": [
        {
          "name": "questionIndex",
          "type": "uint256"
        },
        {
          "name": "answerIndex",
          "type": "uint256"
        }
      ],
      "name": "getQuestionAnswer",
      "outputs": [
        {
          "name": "",
          "type": "string"
        },
        {
          "name": "",
          "type": "bytes32"
        },
        {
          "name": "",
          "type": "bytes32"
        },
        {
          "name": "",
          "type": "address"
        },
        {
          "name": "",
          "type": "bool"
        },
        {
          "name": "",
          "type": "uint256"
        }
      ],
      "payable": false,
      "stateMutability": "view",
      "type": "function"
    },
    {
      "constant": false,
      "inputs": [
        {
          "name": "questionId",
          "type": "bytes32"
        },
        {
          "name": "answerContent",
          "type": "string"
        }
      ],
      "name": "answerQuestion",
      "outputs": [],
      "payable": false,
      "stateMutability": "nonpayable",
      "type": "function"
    },
    {
      "constant": false,
      "inputs": [
        {
          "name": "message",
          "type": "bytes32"
        },
        {
          "name": "title",
          "type": "string"
        },
        {
          "name": "content",
          "type": "string"
        },
        {
          "name": "reward",
          "type": "uint256"
        }
      ],
      "name": "saveMessageToQueue",
      "outputs": [],
      "payable": false,
      "stateMutability": "nonpayable",
      "type": "function"
    },
    {
      "constant": false,
      "inputs": [
        {
          "name": "message",
          "type": "bytes32"
        },
        {
          "name": "sign",
          "type": "bytes"
        },
        {
          "name": "questioner",
          "type": "address"
        }
      ],
      "name": "askQuestionWithoutGas",
      "outputs": [],
      "payable": false,
      "stateMutability": "nonpayable",
      "type": "function"
    },
    {
      "constant": false,
      "inputs": [
        {
          "name": "questionId",
          "type": "bytes32"
        },
        {
          "name": "answerId",
          "type": "bytes32"
        }
      ],
      "name": "setAsBestAnswer",
      "outputs": [],
      "payable": false,
      "stateMutability": "nonpayable",
      "type": "function"
    },
    {
      "constant": false,
      "inputs": [],
      "name": "buy",
      "outputs": [],
      "payable": true,
      "stateMutability": "payable",
      "type": "function"
    },
    {
      "constant": true,
      "inputs": [
        {
          "name": "user",
          "type": "address"
        }
      ],
      "name": "userDetails",
      "outputs": [
        {
          "name": "",
          "type": "uint256"
        }
      ],
      "payable": false,
      "stateMutability": "view",
      "type": "function"
    },
    {
      "constant": true,
      "inputs": [],
      "name": "tokensSold",
      "outputs": [
        {
          "name": "",
          "type": "uint256"
        }
      ],
      "payable": false,
      "stateMutability": "view",
      "type": "function"
    },
    {
      "constant": false,
      "inputs": [
        {
          "name": "account",
          "type": "address"
        }
      ],
      "name": "transferTo",
      "outputs": [],
      "payable": false,
      "stateMutability": "nonpayable",
      "type": "function"
    },
    {
      "constant": false,
      "inputs": [
        {
          "name": "userName",
          "type": "string"
        },
        {
          "name": "password",
          "type": "string"
        },
        {
          "name": "userAddress",
          "type": "address"
        }
      ],
      "name": "registerUser",
      "outputs": [],
      "payable": false,
      "stateMutability": "nonpayable",
      "type": "function"
    },
    {
      "constant": true,
      "inputs": [
        {
          "name": "userAddress",
          "type": "address"
        },
        {
          "name": "password",
          "type": "string"
        }
      ],
      "name": "loginUser",
      "outputs": [
        {
          "name": "",
          "type": "string"
        },
        {
          "name": "",
          "type": "uint256"
        },
        {
          "name": "",
          "type": "uint256"
        },
        {
          "name": "",
          "type": "uint256"
        }
      ],
      "payable": false,
      "stateMutability": "view",
      "type": "function"
    },
    {
      "constant": true,
      "inputs": [
        {
          "name": "userAddress",
          "type": "address"
        }
      ],
      "name": "getUserInfo",
      "outputs": [
        {
          "name": "",
          "type": "string"
        },
        {
          "name": "",
          "type": "uint256"
        },
        {
          "name": "",
          "type": "uint256"
        },
        {
          "name": "",
          "type": "uint256"
        }
      ],
      "payable": false,
      "stateMutability": "view",
      "type": "function"
    }
  ],
  "bytecode": "0x606060405234156200001057600080fd5b604051604080620036ff8339810160405280805190602001909190805190602001909190505081600381905550816004819055508060058190555060006040518059106200005b5750595b908082528060200260200182016040525060019080519060200190620000839291906200008c565b5050506200010c565b828054828255906000526020600020908101928215620000d1579160200282015b82811115620000d0578251829060001916905591602001919060010190620000ad565b5b509050620000e09190620000e4565b5090565b6200010991905b8082111562000105576000816000905550600101620000eb565b5090565b90565b6135e3806200011c6000396000f300606060405260043610610133576000357c0100000000000000000000000000000000000000000000000000000000900463ffffffff16806303bdb46b146101385780630688ba3e1461024257806307e971b5146102cb57806312ad34e2146103065780631cfeffbe1461041957806348dec2a7146105255780634b8f89a514610572578063518ab2a8146105dc57806354c2cdbb14610605578063582926021461063c5780635e5a77e6146106705780636386c1c7146107785780637e1c0c091461083f5780637ff9b5961461086857806388557b07146108915780639f991c5214610950578063a03fa7e314610ab7578063a6f2ae3a14610af0578063aa42bb3014610afa578063af57ccbe14610bb0578063af741bd214610bef578063db88176f14610c18578063e4494a0f14610de7575b600080fd5b341561014357600080fd5b6101b2600480803573ffffffffffffffffffffffffffffffffffffffff1690602001909190803590602001908201803590602001908080601f01602080910402602001604051908101604052809392919081815260200183838082843782019150505050505091905050610e10565b6040518080602001858152602001848152602001838152602001828103825286818151815260200191508051906020019080838360005b838110156102045780820151818401526020810190506101e9565b50505050905090810190601f1680156102315780820380516001836020036101000a031916815260200191505b509550505050505060405180910390f35b341561024d57600080fd5b6102c960048080356000191690602001909190803590602001908201803590602001908080601f0160208091040260200160405190810160405280939291908181526020018383808284378201915050505050509190803573ffffffffffffffffffffffffffffffffffffffff16906020019091905050611233565b005b34156102d657600080fd5b6102f06004808035600019169060200190919050506118d8565b6040518082815260200191505060405180910390f35b341561031157600080fd5b61032b600480803560001916906020019091905050611903565b604051808060200180602001848152602001838103835286818151815260200191508051906020019080838360005b8381101561037557808201518184015260208101905061035a565b50505050905090810190601f1680156103a25780820380516001836020036101000a031916815260200191505b50838103825285818151815260200191508051906020019080838360005b838110156103db5780820151818401526020810190506103c0565b50505050905090810190601f1680156104085780820380516001836020036101000a031916815260200191505b509550505050505060405180910390f35b341561042457600080fd5b610447600480803560001916906020019091908035906020019091905050611a5d565b6040518080602001876000191660001916815260200186600019166000191681526020018573ffffffffffffffffffffffffffffffffffffffff1673ffffffffffffffffffffffffffffffffffffffff16815260200184151515158152602001838152602001828103825288818151815260200191508051906020019080838360005b838110156104e55780820151818401526020810190506104ca565b50505050905090810190601f1680156105125780820380516001836020036101000a031916815260200191505b5097505050505050505060405180910390f35b341561053057600080fd5b61055c600480803573ffffffffffffffffffffffffffffffffffffffff16906020019091905050611c8e565b6040518082815260200191505060405180910390f35b341561057d57600080fd5b6105da60048080356000191690602001909190803590602001908201803590602001908080601f01602080910402602001604051908101604052809392919081815260200183838082843782019150505050505091905050611cd9565b005b34156105e757600080fd5b6105ef61208d565b6040518082815260200191505060405180910390f35b341561061057600080fd5b610626600480803590602001909190505061209b565b6040518082815260200191505060405180910390f35b341561064757600080fd5b61066e600480803560001916906020019091908035600019169060200190919050506120e5565b005b341561067b57600080fd5b61069a6004808035906020019091908035906020019091905050612245565b6040518080602001876000191660001916815260200186600019166000191681526020018573ffffffffffffffffffffffffffffffffffffffff1673ffffffffffffffffffffffffffffffffffffffff16815260200184151515158152602001838152602001828103825288818151815260200191508051906020019080838360005b8381101561073857808201518184015260208101905061071d565b50505050905090810190601f1680156107655780820380516001836020036101000a031916815260200191505b5097505050505050505060405180910390f35b341561078357600080fd5b6107af600480803573ffffffffffffffffffffffffffffffffffffffff16906020019091905050612495565b6040518080602001858152602001848152602001838152602001828103825286818151815260200191508051906020019080838360005b838110156108015780820151818401526020810190506107e6565b50505050905090810190601f16801561082e5780820380516001836020036101000a031916815260200191505b509550505050505060405180910390f35b341561084a57600080fd5b610852612796565b6040518082815260200191505060405180910390f35b341561087357600080fd5b61087b61279c565b6040518082815260200191505060405180910390f35b341561089c57600080fd5b61094e600480803590602001908201803590602001908080601f0160208091040260200160405190810160405280939291908181526020018383808284378201915050505050509190803590602001908201803590602001908080601f0160208091040260200160405190810160405280939291908181526020018383808284378201915050505050509190803573ffffffffffffffffffffffffffffffffffffffff169060200190919050506127a2565b005b341561095b57600080fd5b61097560048080356000191690602001909190505061298f565b60405180886000191660001916815260200180602001806020018773ffffffffffffffffffffffffffffffffffffffff1673ffffffffffffffffffffffffffffffffffffffff16815260200186815260200185815260200184151515158152602001838103835289818151815260200191508051906020019080838360005b83811015610a0f5780820151818401526020810190506109f4565b50505050905090810190601f168015610a3c5780820380516001836020036101000a031916815260200191505b50838103825288818151815260200191508051906020019080838360005b83811015610a75578082015181840152602081019050610a5a565b50505050905090810190601f168015610aa25780820380516001836020036101000a031916815260200191505b50995050505050505050505060405180910390f35b3415610ac257600080fd5b610aee600480803573ffffffffffffffffffffffffffffffffffffffff16906020019091905050612b2e565b005b610af8612b88565b005b3415610b0557600080fd5b610bae60048080356000191690602001909190803590602001908201803590602001908080601f0160208091040260200160405190810160405280939291908181526020018383808284378201915050505050509190803590602001908201803590602001908080601f01602080910402602001604051908101604052809392919081815260200183838082843782019150505050505091908035906020019091905050612c8d565b005b3415610bbb57600080fd5b610bd16004808035906020019091905050612d1c565b60405180826000191660001916815260200191505060405180910390f35b3415610bfa57600080fd5b610c02612d40565b6040518082815260200191505060405180910390f35b3415610c2357600080fd5b610c396004808035906020019091905050612d4d565b6040518089600019166000191681526020018060200180602001806020018873ffffffffffffffffffffffffffffffffffffffff1673ffffffffffffffffffffffffffffffffffffffff1681526020018781526020018681526020018515151515815260200184810384528b818151815260200191508051906020019080838360005b83811015610cd7578082015181840152602081019050610cbc565b50505050905090810190601f168015610d045780820380516001836020036101000a031916815260200191505b5084810383528a818151815260200191508051906020019080838360005b83811015610d3d578082015181840152602081019050610d22565b50505050905090810190601f168015610d6a5780820380516001836020036101000a031916815260200191505b50848103825289818151815260200191508051906020019080838360005b83811015610da3578082015181840152602081019050610d88565b50505050905090810190601f168015610dd05780820380516001836020036101000a031916815260200191505b509b50505050505050505050505060405180910390f35b3415610df257600080fd5b610dfa61311c565b6040518082815260200191505060405180910390f35b610e18613279565b6000806000610e2561328d565b856040518082805190602001908083835b602083101515610e5b5780518252602082019150602081019050602083039250610e36565b6001836020036101000a0380198251168184511680821785525050505050509050019150506040518091039020600019166000808973ffffffffffffffffffffffffffffffffffffffff1673ffffffffffffffffffffffffffffffffffffffff1681526020019081526020016000206002016040518082805460018160011615610100020316600290048015610f285780601f10610f06576101008083540402835291820191610f28565b820191906000526020600020905b815481529060010190602001808311610f14575b5050915050604051809103902060001916141515610f4557600080fd5b6000808873ffffffffffffffffffffffffffffffffffffffff1673ffffffffffffffffffffffffffffffffffffffff16815260200190815260200160002060e060405190810160405290816000820160009054906101000a900460ff16151515158152602001600182018054600181600116156101000203166002900480601f0160208091040260200160405190810160405280929190818152602001828054600181600116156101000203166002900480156110435780601f1061101857610100808354040283529160200191611043565b820191906000526020600020905b81548152906001019060200180831161102657829003601f168201915b50505050508152602001600282018054600181600116156101000203166002900480601f0160208091040260200160405190810160405280929190818152602001828054600181600116156101000203166002900480156110e55780601f106110ba576101008083540402835291602001916110e5565b820191906000526020600020905b8154815290600101906020018083116110c857829003601f168201915b505050505081526020016003820160009054906101000a900473ffffffffffffffffffffffffffffffffffffffff1673ffffffffffffffffffffffffffffffffffffffff1673ffffffffffffffffffffffffffffffffffffffff16815260200160048201548152602001600582018054806020026020016040519081016040528092919081815260200182805480156111a157602002820191906000526020600020905b81546000191681526020019060010190808311611189575b50505050508152602001600682018054806020026020016040519081016040528092919081815260200182805480156111fd57602002820191906000526020600020905b815460001916815260200190600101908083116111e5575b5050505050815250509050806020015181608001518260a00151518360c001515183935094509450945094505092959194509250565b60008061123e6132fb565b61125585876000191661312290919063ffffffff16565b925061126083613213565b600242604051808281526020019150506020604051808303816000865af1151561128957600080fd5b50506040518051905091506000808573ffffffffffffffffffffffffffffffffffffffff1673ffffffffffffffffffffffffffffffffffffffff16815260200190815260200160002060040154600660008860001916600019168152602001908152602001600020600201541115151561130257600080fd5b61010060405190810160405280836000191681526020016006600089600019166000191681526020019081526020016000206000018054600181600116156101000203166002900480601f0160208091040260200160405190810160405280929190818152602001828054600181600116156101000203166002900480156113cb5780601f106113a0576101008083540402835291602001916113cb565b820191906000526020600020905b8154815290600101906020018083116113ae57829003601f168201915b505050505081526020016006600089600019166000191681526020019081526020016000206001018054600181600116156101000203166002900480601f0160208091040260200160405190810160405280929190818152602001828054600181600116156101000203166002900480156114875780601f1061145c57610100808354040283529160200191611487565b820191906000526020600020905b81548152906001019060200180831161146a57829003601f168201915b505050505081526020018573ffffffffffffffffffffffffffffffffffffffff16815260200160006040518059106114bc5750595b908082528060200260200182016040525081526020014281526020016006600089600019166000191681526020019081526020016000206002015481526020016000151581525090508060026000846000191660001916815260200190815260200160002060008201518160000190600019169055602082015181600101908051906020019061154d92919061336e565b50604082015181600201908051906020019061156a92919061336e565b5060608201518160030160006101000a81548173ffffffffffffffffffffffffffffffffffffffff021916908373ffffffffffffffffffffffffffffffffffffffff16021790555060808201518160040190805190602001906115ce9291906133ee565b5060a0820151816005015560c0820151816006015560e08201518160070160006101000a81548160ff0219169083151502179055509050506001805480600101828161161a9190613441565b916000526020600020900160008490919091509060001916905550836000808673ffffffffffffffffffffffffffffffffffffffff1673ffffffffffffffffffffffffffffffffffffffff16815260200190815260200160002060030160006101000a81548173ffffffffffffffffffffffffffffffffffffffff021916908373ffffffffffffffffffffffffffffffffffffffff1602179055506000808573ffffffffffffffffffffffffffffffffffffffff1673ffffffffffffffffffffffffffffffffffffffff16815260200190815260200160002060050180548060010182816117089190613441565b916000526020600020900160008490919091509060001916905550806000808673ffffffffffffffffffffffffffffffffffffffff1673ffffffffffffffffffffffffffffffffffffffff168152602001908152602001600020600701600084600019166000191681526020019081526020016000206000820151816000019060001916905560208201518160010190805190602001906117aa92919061336e565b5060408201518160020190805190602001906117c792919061336e565b5060608201518160030160006101000a81548173ffffffffffffffffffffffffffffffffffffffff021916908373ffffffffffffffffffffffffffffffffffffffff160217905550608082015181600401908051906020019061182b9291906133ee565b5060a0820151816005015560c0820151816006015560e08201518160070160006101000a81548160ff021916908315150217905550905050600660008760001916600019168152602001908152602001600020600201546000808673ffffffffffffffffffffffffffffffffffffffff1673ffffffffffffffffffffffffffffffffffffffff16815260200190815260200160002060040160008282540392505081905550505050505050565b6000600260008360001916600019168152602001908152602001600020600401805490509050919050565b6006602052806000526040600020600091509050806000018054600181600116156101000203166002900480601f0160208091040260200160405190810160405280929190818152602001828054600181600116156101000203166002900480156119af5780601f10611984576101008083540402835291602001916119af565b820191906000526020600020905b81548152906001019060200180831161199257829003601f168201915b505050505090806001018054600181600116156101000203166002900480601f016020809104026020016040519081016040528092919081815260200182805460018160011615610100020316600290048015611a4d5780601f10611a2257610100808354040283529160200191611a4d565b820191906000526020600020905b815481529060010190602001808311611a3057829003601f168201915b5050505050908060020154905083565b611a65613279565b6000806000806000806000611a78613279565b600080600260008e600019166000191681526020019081526020016000206004018c815481101515611aa657fe5b9060005260206000209001549450600260008e600019166000191681526020019081526020016000206008016000866000191660001916815260200190815260200160002060020160009054906101000a900473ffffffffffffffffffffffffffffffffffffffff169350600260008e60001916600019168152602001908152602001600020600801600086600019166000191681526020019081526020016000206001018054600181600116156101000203166002900480601f016020809104026020016040519081016040528092919081815260200182805460018160011615610100020316600290048015611bdf5780601f10611bb457610100808354040283529160200191611bdf565b820191906000526020600020905b815481529060010190602001808311611bc257829003601f168201915b50505050509250600260008e600019166000191681526020019081526020016000206008016000866000191660001916815260200190815260200160002060040160009054906101000a900460ff169150600260008e600019166000191681526020019081526020016000206008016000866000191660001916815260200190815260200160002060050154905082858e8685859a509a509a509a509a509a5050505050509295509295509295565b60008060008373ffffffffffffffffffffffffffffffffffffffff1673ffffffffffffffffffffffffffffffffffffffff168152602001908152602001600020600401549050919050565b6000611ce361346d565b600242604051808281526020019150506020604051808303816000865af11515611d0c57600080fd5b505060405180519050915060c060405190810160405280836000191681526020018481526020013373ffffffffffffffffffffffffffffffffffffffff168152602001600081526020016000151581526020014281525090506002600085600019166000191681526020019081526020016000206004018054806001018281611d959190613441565b9160005260206000209001600084909190915090600019169055508060026000866000191660001916815260200190815260200160002060080160008460001916600019168152602001908152602001600020600082015181600001906000191690556020820151816001019080519060200190611e1492919061336e565b5060408201518160020160006101000a81548173ffffffffffffffffffffffffffffffffffffffff021916908373ffffffffffffffffffffffffffffffffffffffff1602179055506060820151816003015560808201518160040160006101000a81548160ff02191690831515021790555060a08201518160050155905050336000803373ffffffffffffffffffffffffffffffffffffffff1673ffffffffffffffffffffffffffffffffffffffff16815260200190815260200160002060030160006101000a81548173ffffffffffffffffffffffffffffffffffffffff021916908373ffffffffffffffffffffffffffffffffffffffff1602179055506000803373ffffffffffffffffffffffffffffffffffffffff1673ffffffffffffffffffffffffffffffffffffffff1681526020019081526020016000206006018054806001018281611f669190613441565b916000526020600020900160008490919091509060001916905550806000803373ffffffffffffffffffffffffffffffffffffffff1673ffffffffffffffffffffffffffffffffffffffff1681526020019081526020016000206008016000846000191660001916815260200190815260200160002060008201518160000190600019169055602082015181600101908051906020019061200892919061336e565b5060408201518160020160006101000a81548173ffffffffffffffffffffffffffffffffffffffff021916908373ffffffffffffffffffffffffffffffffffffffff1602179055506060820151816003015560808201518160040160006101000a81548160ff02191690831515021790555060a0820151816005015590505050505050565b600060045460035403905090565b6000806001838154811015156120ad57fe5b906000526020600020900154905060026000826000191660001916815260200190815260200160002060040180549050915050919050565b60008060016002600086600019166000191681526020019081526020016000206008016000856000191660001916815260200190815260200160002060040160006101000a81548160ff021916908315150217905550600260008560001916600019168152602001908152602001600020600601549150600160026000866000191660001916815260200190815260200160002060070160006101000a81548160ff0219169083151502179055506002600085600019166000191681526020019081526020016000206008016000846000191660001916815260200190815260200160002060020160009054906101000a900473ffffffffffffffffffffffffffffffffffffffff169050816000808373ffffffffffffffffffffffffffffffffffffffff1673ffffffffffffffffffffffffffffffffffffffff1681526020019081526020016000206004016000828254019250508190555050505050565b61224d613279565b600080600080600080600080612261613279565b60008060018e81548110151561227357fe5b90600052602060002090015495506002600087600019166000191681526020019081526020016000206004018d8154811015156122ac57fe5b90600052602060002090015494506002600087600019166000191681526020019081526020016000206008016000866000191660001916815260200190815260200160002060020160009054906101000a900473ffffffffffffffffffffffffffffffffffffffff169350600260008760001916600019168152602001908152602001600020600801600086600019166000191681526020019081526020016000206001018054600181600116156101000203166002900480601f0160208091040260200160405190810160405280929190818152602001828054600181600116156101000203166002900480156123e55780601f106123ba576101008083540402835291602001916123e5565b820191906000526020600020905b8154815290600101906020018083116123c857829003601f168201915b505050505092506002600087600019166000191681526020019081526020016000206008016000866000191660001916815260200190815260200160002060040160009054906101000a900460ff169150600260008760001916600019168152602001908152602001600020600801600086600019166000191681526020019081526020016000206005015490508285878685859b509b509b509b509b509b505050505050509295509295509295565b61249d613279565b60008060006124aa61328d565b6000808773ffffffffffffffffffffffffffffffffffffffff1673ffffffffffffffffffffffffffffffffffffffff16815260200190815260200160002060e060405190810160405290816000820160009054906101000a900460ff16151515158152602001600182018054600181600116156101000203166002900480601f0160208091040260200160405190810160405280929190818152602001828054600181600116156101000203166002900480156125a85780601f1061257d576101008083540402835291602001916125a8565b820191906000526020600020905b81548152906001019060200180831161258b57829003601f168201915b50505050508152602001600282018054600181600116156101000203166002900480601f01602080910402602001604051908101604052809291908181526020018280546001816001161561010002031660029004801561264a5780601f1061261f5761010080835404028352916020019161264a565b820191906000526020600020905b81548152906001019060200180831161262d57829003601f168201915b505050505081526020016003820160009054906101000a900473ffffffffffffffffffffffffffffffffffffffff1673ffffffffffffffffffffffffffffffffffffffff1673ffffffffffffffffffffffffffffffffffffffff168152602001600482015481526020016005820180548060200260200160405190810160405280929190818152602001828054801561270657602002820191906000526020600020905b815460001916815260200190600101908083116126ee575b505050505081526020016006820180548060200260200160405190810160405280929190818152602001828054801561276257602002820191906000526020600020905b8154600019168152602001906001019080831161274a575b5050505050815250509050806020015181608001518260a00151518360c00151518393509450945094509450509193509193565b60035481565b60055481565b6000808273ffffffffffffffffffffffffffffffffffffffff1673ffffffffffffffffffffffffffffffffffffffff16815260200190815260200160002060000160009054906101000a900460ff16156127fb57600080fd5b60016000808373ffffffffffffffffffffffffffffffffffffffff1673ffffffffffffffffffffffffffffffffffffffff16815260200190815260200160002060000160006101000a81548160ff021916908315150217905550826000808373ffffffffffffffffffffffffffffffffffffffff1673ffffffffffffffffffffffffffffffffffffffff16815260200190815260200160002060010190805190602001906128aa9291906134c5565b50816000808373ffffffffffffffffffffffffffffffffffffffff1673ffffffffffffffffffffffffffffffffffffffff16815260200190815260200160002060020190805190602001906129009291906134c5565b50806000808373ffffffffffffffffffffffffffffffffffffffff1673ffffffffffffffffffffffffffffffffffffffff16815260200190815260200160002060030160006101000a81548173ffffffffffffffffffffffffffffffffffffffff021916908373ffffffffffffffffffffffffffffffffffffffff16021790555061298a81613213565b505050565b6002602052806000526040600020600091509050806000015490806001018054600181600116156101000203166002900480601f016020809104026020016040519081016040528092919081815260200182805460018160011615610100020316600290048015612a415780601f10612a1657610100808354040283529160200191612a41565b820191906000526020600020905b815481529060010190602001808311612a2457829003601f168201915b505050505090806002018054600181600116156101000203166002900480601f016020809104026020016040519081016040528092919081815260200182805460018160011615610100020316600290048015612adf5780601f10612ab457610100808354040283529160200191612adf565b820191906000526020600020905b815481529060010190602001808311612ac257829003601f168201915b5050505050908060030160009054906101000a900473ffffffffffffffffffffffffffffffffffffffff16908060050154908060060154908060070160009054906101000a900460ff16905087565b8073ffffffffffffffffffffffffffffffffffffffff166108fc3073ffffffffffffffffffffffffffffffffffffffff16319081150290604051600060405180830381858888f193505050501515612b8557600080fd5b50565b600060055434811515612b9757fe5b0490506004548111151515612bab57600080fd5b336000803373ffffffffffffffffffffffffffffffffffffffff1673ffffffffffffffffffffffffffffffffffffffff16815260200190815260200160002060030160006101000a81548173ffffffffffffffffffffffffffffffffffffffff021916908373ffffffffffffffffffffffffffffffffffffffff160217905550806000803373ffffffffffffffffffffffffffffffffffffffff1673ffffffffffffffffffffffffffffffffffffffff168152602001908152602001600020600401600082825401925050819055508060046000828254039250508190555050565b826006600086600019166000191681526020019081526020016000206000019080519060200190612cbf9291906134c5565b50816006600086600019166000191681526020019081526020016000206001019080519060200190612cf29291906134c5565b50806006600086600019166000191681526020019081526020016000206002018190555050505050565b600181815481101515612d2b57fe5b90600052602060002090016000915090505481565b6000600180549050905090565b6000612d57613279565b612d5f613279565b612d67613279565b6000806000806000612d776132fb565b60018b815481101515612d8657fe5b90600052602060002090015491506002600083600019166000191681526020019081526020016000206101006040519081016040529081600082015460001916600019168152602001600182018054600181600116156101000203166002900480601f016020809104026020016040519081016040528092919081815260200182805460018160011615610100020316600290048015612e675780601f10612e3c57610100808354040283529160200191612e67565b820191906000526020600020905b815481529060010190602001808311612e4a57829003601f168201915b50505050508152602001600282018054600181600116156101000203166002900480601f016020809104026020016040519081016040528092919081815260200182805460018160011615610100020316600290048015612f095780601f10612ede57610100808354040283529160200191612f09565b820191906000526020600020905b815481529060010190602001808311612eec57829003601f168201915b505050505081526020016003820160009054906101000a900473ffffffffffffffffffffffffffffffffffffffff1673ffffffffffffffffffffffffffffffffffffffff1673ffffffffffffffffffffffffffffffffffffffff16815260200160048201805480602002602001604051908101604052809291908181526020018280548015612fbb57602002820191906000526020600020905b81546000191681526020019060010190808311612fa3575b5050505050815260200160058201548152602001600682015481526020016007820160009054906101000a900460ff1615151515815250509050806000015181602001518260400151600080856060015173ffffffffffffffffffffffffffffffffffffffff1673ffffffffffffffffffffffffffffffffffffffff16815260200190815260200160002060010184606001518560a001518660c001518760e00151869650859550848054600181600116156101000203166002900480601f0160208091040260200160405190810160405280929190818152602001828054600181600116156101000203166002900480156130f85780601f106130cd576101008083540402835291602001916130f8565b820191906000526020600020905b8154815290600101906020018083116130db57829003601f168201915b50505050509450995099509950995099509950995099505050919395975091939597565b60045481565b6000806000806041855114151561313c576000935061320a565b6020850151925060408501519150606085015160001a9050601b8160ff16101561316757601b810190505b601b8160ff161415801561317f5750601c8160ff1614155b1561318d576000935061320a565b600186828585604051600081526020016040526040518085600019166000191681526020018460ff1660ff1681526020018360001916600019168152602001826000191660001916815260200194505050505060206040516020810390808403906000865af115156131fe57600080fd5b50506020604051035193505b50505092915050565b7ff81fb9789dc1364f2a0215207fe032209176b982c18d8a7518226637ba4334a381604051808273ffffffffffffffffffffffffffffffffffffffff1673ffffffffffffffffffffffffffffffffffffffff16815260200191505060405180910390a150565b602060405190810160405280600081525090565b60e0604051908101604052806000151581526020016132aa613545565b81526020016132b7613545565b8152602001600073ffffffffffffffffffffffffffffffffffffffff168152602001600081526020016132e8613559565b81526020016132f5613559565b81525090565b610100604051908101604052806000801916815260200161331a613545565b8152602001613327613545565b8152602001600073ffffffffffffffffffffffffffffffffffffffff168152602001613351613559565b815260200160008152602001600081526020016000151581525090565b828054600181600116156101000203166002900490600052602060002090601f016020900481019282601f106133af57805160ff19168380011785556133dd565b828001600101855582156133dd579182015b828111156133dc5782518255916020019190600101906133c1565b5b5090506133ea919061356d565b5090565b828054828255906000526020600020908101928215613430579160200282015b8281111561342f57825182906000191690559160200191906001019061340e565b5b50905061343d9190613592565b5090565b815481835581811511613468578183600052602060002091820191016134679190613592565b5b505050565b60c0604051908101604052806000801916815260200161348b613545565b8152602001600073ffffffffffffffffffffffffffffffffffffffff16815260200160008152602001600015158152602001600081525090565b828054600181600116156101000203166002900490600052602060002090601f016020900481019282601f1061350657805160ff1916838001178555613534565b82800160010185558215613534579182015b82811115613533578251825591602001919060010190613518565b5b509050613541919061356d565b5090565b602060405190810160405280600081525090565b602060405190810160405280600081525090565b61358f91905b8082111561358b576000816000905550600101613573565b5090565b90565b6135b491905b808211156135b0576000816000905550600101613598565b5090565b905600a165627a7a72305820a43231882bbabd89a3c9f7b620dbba0379c8c77a83d83dba626d870cbd342a730029",
  "source": "pragma solidity ^0.4.18;\nimport \"./ECRecovery.sol\";\n\ncontract Forum {\n\n    event LogMsg(address);\n\n    function log(address message) internal {\n        emit LogMsg(message);\n    }\n\n    using ECRecovery for bytes32;\n\n    struct User {\n        bool registered;\n        string userName;\n        string password;\n        address userAddress;\n        uint ownedTokens;\n        bytes32[] questionsIdList;\n        bytes32[] answersIdList;\n        mapping (bytes32 => Question) myQuestions;\n        mapping (bytes32 => Answer) myAnswers;\n    }\n\n    mapping (address => User) userInfo;\n\n    struct Question {\n        bytes32 id;\n        string title;\n        string question;\n        address questioner;\n        bytes32[] answersIdList;\n        uint createDate;\n        uint questionReward;\n        bool bestAnswerSelected;\n        mapping (bytes32 => Answer) answerInfo;\n    }\n\n    struct Answer {\n        bytes32 id;\n        string answer;\n        address answerer;\n        uint rewards;\n        bool bestAnswer;\n        uint createDate;\n    }\n\n    bytes32[] public questionIdList;\n    mapping (bytes32 => Question) public questionInfo;\n    \n    uint public totalTokens; // Total no. of tokens available for this website\n    uint public balanceTokens; // Total no. of tokens still available for purchase\n    uint public tokenPrice; // Price per token\n\n    struct QuestionMessage {\n        string title;\n        string content;\n        uint reward;\n    }\n\n    mapping (bytes32 => QuestionMessage) public messageQueue;\n\n    function Forum(uint tokens, uint pricePerToken) public {\n        totalTokens = tokens;\n        balanceTokens = tokens;\n        tokenPrice = pricePerToken;\n        questionIdList = new bytes32[](0);\n    }\n/*\n    function askQuestion(string questionTitle, string questionContent, uint reward) public returns (bytes32){\n        bytes32 questionId = sha256(now);\n        require(reward <= userInfo[msg.sender].ownedTokens);\n        Question memory question = Question(questionId, questionTitle, questionContent, msg.sender, new bytes32[](0), now, reward, false);\n        questionInfo[questionId] = question;\n        questionIdList.push(questionId);\n        userInfo[msg.sender].userAddress = msg.sender;\n        userInfo[msg.sender].questionsIdList.push(questionId);\n        userInfo[msg.sender].myQuestions[questionId] = question;\n        userInfo[msg.sender].ownedTokens -= reward;\n\n        return questionId;\n    }\n*/\n    function getQuestionListLength() view public returns (uint) {\n        return questionIdList.length;\n    }\n\n    //return value : questionId, questionTitle, questionContent, username, questioner, createDate, questionReward, bestAnswerSelected\n    function getQuestion (uint questionIndex) view public returns (bytes32, string, string, string, address, uint, uint, bool) {\n        bytes32 questionId = questionIdList[questionIndex];\n        Question memory question = questionInfo[questionId];\n        return (question.id, question.title, question.question, userInfo[question.questioner].userName, question.questioner, question.createDate, question.questionReward, question.bestAnswerSelected);\n    }\n\n    function getQuestionAnswerListLength(uint questionIndex) view public returns (uint) {\n        bytes32 questionId = questionIdList[questionIndex];\n        return questionInfo[questionId].answersIdList.length;\n    }\n\n    function getQuestionAnswerListLengthByQuestionId(bytes32 questionId) view public returns (uint) {\n        return questionInfo[questionId].answersIdList.length;\n    }\n\n    function getQuestionAnswerByQuestionId(bytes32 questionId, uint answerIndex)  view public returns (string, bytes32, bytes32, address, bool, uint) {\n        bytes32 answerId = questionInfo[questionId].answersIdList[answerIndex];\n        address answerer = questionInfo[questionId].answerInfo[answerId].answerer;\n        // string userName = userInfo[questionInfo[questionId].answerInfo[answerId].answerer].userName;\n        string memory answerContent = questionInfo[questionId].answerInfo[answerId].answer;\n        bool isBestAnswer = questionInfo[questionId].answerInfo[answerId].bestAnswer;\n        uint createDate = questionInfo[questionId].answerInfo[answerId].createDate;\n        return (answerContent, answerId, questionId, answerer, isBestAnswer, createDate);\n    }\n\n    function getQuestionAnswer(uint questionIndex, uint answerIndex) view public returns (string, bytes32, bytes32, address, bool, uint) {\n        bytes32 questionId = questionIdList[questionIndex];\n        bytes32 answerId = questionInfo[questionId].answersIdList[answerIndex];\n        address answerer = questionInfo[questionId].answerInfo[answerId].answerer;\n        string memory answerContent = questionInfo[questionId].answerInfo[answerId].answer;\n        bool isBestAnswer = questionInfo[questionId].answerInfo[answerId].bestAnswer;\n        uint createDate = questionInfo[questionId].answerInfo[answerId].createDate;\n        return (answerContent, answerId, questionId, answerer, isBestAnswer, createDate);\n    }\n\n    function answerQuestion(bytes32 questionId, string answerContent) public {\n        bytes32 answerId = sha256(now);\n        // Question question = questionInfo[questionId];\n        Answer memory answer = Answer(answerId, answerContent, msg.sender, 0, false, now);\n        questionInfo[questionId].answersIdList.push(answerId);\n        questionInfo[questionId].answerInfo[answerId] = answer;\n        userInfo[msg.sender].userAddress = msg.sender;\n        userInfo[msg.sender].answersIdList.push(answerId);\n        userInfo[msg.sender].myAnswers[answerId] = answer;\n    }\n\n    function saveMessageToQueue(bytes32 message, string title, string content, uint reward) public {\n        messageQueue[message].title = title;\n        messageQueue[message].content = content;\n        messageQueue[message].reward = reward;\n    }\n\n    function askQuestionWithoutGas(bytes32 message, bytes sign, address questioner) public {\n        address recoveredAddress = message.recover(sign);\n\n        log(recoveredAddress);\n\n        //TODO: this require is needed for checking the public key get from recover(message, sign) == questionerAddress\n        // require(recoveredAddress == questioner);\n        bytes32 questionId = sha256(now);\n        require(messageQueue[message].reward <= userInfo[questioner].ownedTokens);\n        Question memory question = Question(questionId, messageQueue[message].title, messageQueue[message].content, questioner, new bytes32[](0), now, messageQueue[message].reward, false);\n        questionInfo[questionId] = question;\n        questionIdList.push(questionId);\n        userInfo[questioner].userAddress = questioner;\n        userInfo[questioner].questionsIdList.push(questionId);\n        userInfo[questioner].myQuestions[questionId] = question;\n        userInfo[questioner].ownedTokens -= messageQueue[message].reward;\n    }\n\n    // function getQuestionAnswers(bytes32 questionId) view public returns (Answer[]) {\n    //     // Question question = questionInfo[questionId];\n    //     Answer[] memory answerList = new Answer[](questionInfo[questionId].answersIdList.length);\n        \n    //     for (uint i = 0; i < questionInfo[questionId].answersIdList.length; i++) {\n    //         Answer memory answerRes = questionInfo[questionId].answerInfo[questionInfo[questionId].answersIdList[i]];\n    //         answerList[i] = answerRes;\n    //     }\n        \n    //     return answerList;\n    // }\n\n    function setAsBestAnswer(bytes32 questionId, bytes32 answerId) public {\n        questionInfo[questionId].answerInfo[answerId].bestAnswer = true;\n        uint reward = questionInfo[questionId].questionReward;\n        questionInfo[questionId].bestAnswerSelected = true;\n        address answererAddress = questionInfo[questionId].answerInfo[answerId].answerer;\n        userInfo[answererAddress].ownedTokens += reward;\n    }\n\n    function buy() payable public {\n        uint tokensToBuy = msg.value / tokenPrice;\n        require(tokensToBuy <= balanceTokens);\n        userInfo[msg.sender].userAddress = msg.sender;\n        userInfo[msg.sender].ownedTokens += tokensToBuy;\n        balanceTokens -= tokensToBuy;\n    }\n\n    function userDetails(address user) view public returns (uint) {\n        return (userInfo[user].ownedTokens);\n    }\n\n    function tokensSold() view public returns (uint) {\n        return totalTokens - balanceTokens;\n    }\n\n    function transferTo(address account) public {\n        account.transfer(address(this).balance);\n    }\n\n    function registerUser(string userName, string password, address userAddress) public {\n        if (userInfo[userAddress].registered) revert();\n        userInfo[userAddress].registered = true;\n        userInfo[userAddress].userName = userName;\n        userInfo[userAddress].password = password;\n        userInfo[userAddress].userAddress = userAddress;\n        log(userAddress);\n    }\n\n    //return userName, ownedTokens, questionsLength, answersLength\n    function loginUser(address userAddress, string password) view public returns (string, uint, uint, uint) {\n        if (keccak256(userInfo[userAddress].password) != keccak256(password)) revert();\n        User memory user = userInfo[userAddress];\n        return (user.userName, user.ownedTokens, user.questionsIdList.length, user.answersIdList.length);\n    }\n\n    function getUserInfo(address userAddress) view public returns (string, uint, uint, uint) {\n        User memory user = userInfo[userAddress];\n        return (user.userName, user.ownedTokens, user.questionsIdList.length, user.answersIdList.length);\n    }\n\n    \n\n\n\n/*\n    function convertAnswerToString(bytes32 answerId, string answerContent, address answerer, uint rewards, bool bestAnswer, uint createDate) public returns (string) {\n        string memory isBestAnswer;\n        if (bestAnswer) {\n            isBestAnswer = \"true\";\n        } else {\n            isBestAnswer = \"false\";\n        }\n\n        return strConcat(answerContent, answerer, rewards, isBestAnswer, createDate, \"==>\");\n    }\n\n    function strConcat(string _b, address _c, uint _d, string _e, uint _f, string _spliter) internal returns (string){\n        // string memory str0 = strConcatSub0(bytes32ToString(_a));\n        string memory str1 = strConcatSub1(_b, _c, _spliter);\n        string memory str2 = strConcatSub2(_d, _e, _f, _spliter);\n        // bytes memory _ba = bytes(str0);\n        bytes memory _bb = bytes(str1);\n        bytes memory _bc = bytes(str2);\n        string memory abcde = new string(_bb.length + _bc.length);\n        bytes memory babcde = bytes(abcde);\n        uint k = 0;\n        // for (uint i = 0; i < _ba.length; i++) babcde[k++] = _ba[i];\n        for (uint i = 0; i < _bb.length; i++) babcde[k++] = _bb[i];\n        for (i = 0; i < _bc.length; i++) babcde[k++] = _bc[i];\n        return string(babcde);\n    }\n\n    function strConcatSub0(string[] id) internal returns (string) {\n        // bytes memory _ba = bytes(id);\n        // string memory newStr = new string(_ba.length);\n        // bytes memory res = bytes(newStr);\n        // uint k = 0;\n        // for (uint i = 0; i < _ba.length; i++) res[k++] = _ba[i];\n        // return string(res);\n    }\n\n    function strConcatSub1(string answerContent, address answerer, string spliter) internal returns (string) {\n        bytes memory _bb = bytes(answerContent);\n        bytes memory _bc = addressToBytes(answerer);\n        bytes memory _spliter = bytes(spliter);\n        string memory newStr = new string(_spliter.length + _bb.length + _spliter.length +_bc.length + _spliter.length);\n        bytes memory res = bytes(newStr);\n        uint k = 0;\n        for (uint i = 0; i < _spliter.length; i++) res[k++] = _spliter[i];\n        for (i = 0; i < _bb.length; i++) res[k++] = _bb[i];\n        for (i = 0; i < _spliter.length; i++) res[k++] = _spliter[i];\n        for (i = 0; i < _bc.length; i++) res[k++] = _bc[i];\n        for (i = 0; i < _spliter.length; i++) res[k++] = _spliter[i];\n        return string(res);\n    }\n\n    function strConcatSub2(uint rewards, string isBestAnswer, uint createDate, string spliter) internal returns (string) {\n        bytes memory _ba = uintToBytes(rewards);\n        bytes memory _bb = bytes(isBestAnswer);\n        bytes memory _bc = uintToBytes(createDate);\n        bytes memory _spliter = bytes(spliter);\n        string memory newStr = new string(_ba.length + _spliter.length + _bb.length + _spliter.length +_bc.length);\n        bytes memory res = bytes(newStr);\n        uint k = 0;\n        for (uint i = 0; i < _ba.length; i++) res[k++] = _ba[i];\n        for (i = 0; i < _spliter.length; i++) res[k++] = _spliter[i];\n        for (i = 0; i < _bb.length; i++) res[k++] = _bb[i];\n        for (i = 0; i < _spliter.length; i++) res[k++] = _spliter[i];\n        for (i = 0; i < _bc.length; i++) res[k++] = _bc[i];\n        return string(res);\n    }\n\n    function bytes32ToBytes(bytes32 data) view public returns (bytes) {\n        uint i = 0;\n        while (i < 32 && uint(data[i]) != 0) {\n            ++i;\n        }\n        bytes memory result = new bytes(i);\n        i = 0;\n        while (i < 32 && data[i] != 0) {\n            result[i] = data[i];\n            ++i;\n        }\n        return result;\n    }\n\n    function addressToBytes(address x) view public returns (bytes b) {\n        b = new bytes(20);\n        for (uint i = 0; i < 20; i++)\n            b[i] = byte(uint8(uint(x) / (2**(8*(19 - i)))));\n    }\n\n    function uintToBytes(uint256 x) view public returns (bytes b) {\n        b = new bytes(32);\n        for (uint i = 0; i < 32; i++) {\n            b[i] = byte(uint8(x / (2**(8*(31 - i))))); \n        }\n    }\n\n    function bytes32ToString(bytes32 x) view public returns (string) {\n        bytes memory bytesString = new bytes(32);\n        uint charCount = 0;\n        for (uint j = 0; j < 32; j++) {\n            byte char = byte(bytes32(uint(x) * 2 ** (8 * j)));\n            if (char != 0) {\n                bytesString[charCount] = char;\n                charCount++;\n            }\n        }\n        bytes memory bytesStringTrimmed = new bytes(charCount);\n        for (j = 0; j < charCount; j++) {\n            bytesStringTrimmed[j] = bytesString[j];\n        }\n        return string(bytesStringTrimmed);\n    }\n*/\n}",
  "sourcePath": "/Users/James/Project/qaforum/contracts/Forum.sol",
  "compiler": {
    "name": "solc",
    "version": "0.4.21+commit.dfe3193c.Emscripten.clang"
  },
  "schemaVersion": "2.0.0",
  "updatedAt": "2018-04-25T02:07:54.531Z"
}